{
  "contractName": "TimeLockTokenEscrow",
  "abi": [
    {
      "inputs": [
        {
          "internalType": "contract IERC20",
          "name": "_token",
          "type": "address"
        }
      ],
      "payable": false,
      "stateMutability": "nonpayable",
      "type": "constructor"
    },
    {
      "anonymous": false,
      "inputs": [
        {
          "indexed": true,
          "internalType": "address",
          "name": "_creator",
          "type": "address"
        },
        {
          "indexed": true,
          "internalType": "address",
          "name": "_beneficiary",
          "type": "address"
        },
        {
          "indexed": true,
          "internalType": "uint256",
          "name": "_amount",
          "type": "uint256"
        },
        {
          "indexed": false,
          "internalType": "uint256",
          "name": "_lockedUntil",
          "type": "uint256"
        }
      ],
      "name": "Lockup",
      "type": "event"
    },
    {
      "anonymous": false,
      "inputs": [
        {
          "indexed": true,
          "internalType": "address",
          "name": "_creator",
          "type": "address"
        },
        {
          "indexed": true,
          "internalType": "address",
          "name": "_beneficiary",
          "type": "address"
        },
        {
          "indexed": true,
          "internalType": "uint256",
          "name": "_amount",
          "type": "uint256"
        }
      ],
      "name": "LockupReverted",
      "type": "event"
    },
    {
      "anonymous": false,
      "inputs": [
        {
          "indexed": true,
          "internalType": "address",
          "name": "_beneficiary",
          "type": "address"
        },
        {
          "indexed": true,
          "internalType": "address",
          "name": "_caller",
          "type": "address"
        }
      ],
      "name": "Withdrawal",
      "type": "event"
    },
    {
      "constant": true,
      "inputs": [
        {
          "internalType": "address",
          "name": "",
          "type": "address"
        }
      ],
      "name": "beneficiaryToTimeLock",
      "outputs": [
        {
          "internalType": "address",
          "name": "creator",
          "type": "address"
        },
        {
          "internalType": "uint256",
          "name": "amount",
          "type": "uint256"
        },
        {
          "internalType": "uint256",
          "name": "lockedUntil",
          "type": "uint256"
        }
      ],
      "payable": false,
      "stateMutability": "view",
      "type": "function"
    },
    {
      "constant": true,
      "inputs": [],
      "name": "token",
      "outputs": [
        {
          "internalType": "contract IERC20",
          "name": "",
          "type": "address"
        }
      ],
      "payable": false,
      "stateMutability": "view",
      "type": "function"
    },
    {
      "constant": false,
      "inputs": [
        {
          "internalType": "address",
          "name": "_beneficiary",
          "type": "address"
        },
        {
          "internalType": "uint256",
          "name": "_amount",
          "type": "uint256"
        },
        {
          "internalType": "uint256",
          "name": "_lockedUntil",
          "type": "uint256"
        }
      ],
      "name": "lock",
      "outputs": [],
      "payable": false,
      "stateMutability": "nonpayable",
      "type": "function"
    },
    {
      "constant": false,
      "inputs": [
        {
          "internalType": "address",
          "name": "_beneficiary",
          "type": "address"
        }
      ],
      "name": "revertLock",
      "outputs": [],
      "payable": false,
      "stateMutability": "nonpayable",
      "type": "function"
    },
    {
      "constant": false,
      "inputs": [
        {
          "internalType": "address",
          "name": "_beneficiary",
          "type": "address"
        }
      ],
      "name": "withdrawal",
      "outputs": [],
      "payable": false,
      "stateMutability": "nonpayable",
      "type": "function"
    }
  ],
  "bytecode": "0x608060405234801561001057600080fd5b50604051610b76380380610b768339818101604052602081101561003357600080fd5b50516001600081905580546001600160a01b039092166001600160a01b0319909216919091179055610b0c8061006a6000396000f3fe608060405234801561001057600080fd5b50600436106100575760003560e01c80633d404ac21461005c578063829a869a146100aa57806396131049146100d2578063e2ab691d146100f8578063fc0c546a1461012a575b600080fd5b6100826004803603602081101561007257600080fd5b50356001600160a01b031661014e565b604080516001600160a01b039094168452602084019290925282820152519081900360600190f35b6100d0600480360360208110156100c057600080fd5b50356001600160a01b031661017a565b005b6100d0600480360360208110156100e857600080fd5b50356001600160a01b0316610384565b6100d06004803603606081101561010e57600080fd5b506001600160a01b038135169060208101359060400135610598565b6101326108ec565b604080516001600160a01b039092168252519081900360200190f35b60026020819052600091825260409091208054600182015491909201546001600160a01b039092169183565b600080546001018082556001600160a01b038084168352600260205260409092208054919290911633146101df5760405162461bcd60e51b815260040180806020018281038252602f8152602001806109af602f913960400191505060405180910390fd5b60008160010154116102225760405162461bcd60e51b815260040180806020018281038252603b8152602001806109de603b913960400191505060405180910390fd5b60018082018054600091829055915483546040805163a9059cbb60e01b81526001600160a01b039283166004820152602481018690529051919092169163a9059cbb91604480830192602092919082900301818787803b15801561028557600080fd5b505af1158015610299573d6000803e3d6000fd5b505050506040513d60208110156102af57600080fd5b50519050806102ef5760405162461bcd60e51b815260040180806020018281038252602a8152602001806108fc602a913960400191505060405180910390fd5b60405182906001600160a01b0387169033907f06a62eda8771b22e04b94484c4552c462aa8429344a48e6ef5c661fe5adaedec90600090a45050506000548114610380576040805162461bcd60e51b815260206004820152601f60248201527f5265656e7472616e637947756172643a207265656e7472616e742063616c6c00604482015290519081900360640190fd5b5050565b6000805460019081018083556001600160a01b038416835260026020526040909220908101546103e55760405162461bcd60e51b815260040180806020018281038252602e815260200180610a6f602e913960400191505060405180910390fd5b806002015442101561043e576040805162461bcd60e51b815260206004820152601a60248201527f546f6b656e7320617265207374696c6c206c6f636b6564207570000000000000604482015290519081900360640190fd5b6001808201805460009182905591546040805163a9059cbb60e01b81526001600160a01b038881166004830152602482018690529151919092169163a9059cbb91604480830192602092919082900301818787803b15801561049f57600080fd5b505af11580156104b3573d6000803e3d6000fd5b505050506040513d60208110156104c957600080fd5b50519050806105095760405162461bcd60e51b8152600401808060200182810382526028815260200180610a196028913960400191505060405180910390fd5b60405133906001600160a01b038716907ffee4bd730c5342548069b84e6a6b38c19507a6fe4bbbc4ab6f648b1ed2ad5fc890600090a35050506000548114610380576040805162461bcd60e51b815260206004820152601f60248201527f5265656e7472616e637947756172643a207265656e7472616e742063616c6c00604482015290519081900360640190fd5b60008054600101908190556001600160a01b0384166105e85760405162461bcd60e51b815260040180806020018281038252602e815260200180610a41602e913960400191505060405180910390fd5b600083116106275760405162461bcd60e51b81526004018080602001828103825260288152602001806109266028913960400191505060405180910390fd5b6001600160a01b0384166000908152600260205260409020600101541561067f5760405162461bcd60e51b81526004018080602001828103825260388152602001806109776038913960400191505060405180910390fd5b60015460408051636eb1769f60e11b8152336004820152306024820152905185926001600160a01b03169163dd62ed3e916044808301926020929190829003018186803b1580156106cf57600080fd5b505afa1580156106e3573d6000803e3d6000fd5b505050506040513d60208110156106f957600080fd5b505110156107385760405162461bcd60e51b815260040180806020018281038252603b815260200180610a9d603b913960400191505060405180910390fd5b604080516060810182523380825260208083018781528385018781526001600160a01b038a811660009081526002808652888220975188546001600160a01b0319169084161788559351600180890191909155925196909301959095555485516323b872dd60e01b815260048101949094523060248501526044840189905294519094909316926323b872dd92606480820193929182900301818787803b1580156107e257600080fd5b505af11580156107f6573d6000803e3d6000fd5b505050506040513d602081101561080c57600080fd5b505190508061084c5760405162461bcd60e51b815260040180806020018281038252602981526020018061094e6029913960400191505060405180910390fd5b60408051848152905185916001600160a01b0388169133917f11cadbecbeb6a35fe093a1e810f451c4838b4b6a991a4ea5c9124539bbc6bd21919081900360200190a45060005481146108e6576040805162461bcd60e51b815260206004820152601f60248201527f5265656e7472616e637947756172643a207265656e7472616e742063616c6c00604482015290519081900360640190fd5b50505050565b6001546001600160a01b03168156fe4661696c656420746f2073656e6420746f6b656e73206261636b20746f206c6f636b2063726561746f724c6f636b20757020616d6f756e74206f66207a65726f20746f6b656e7320697320696e76616c69644661696c656420746f20657363726f7720746f6b656e7320696e746f2074686520636f6e7472616374546f6b656e73206861766520616c7265616479206265656e206c6f636b656420757020666f722074686520676976656e206164647265737343616e6e6f74207265766572742061206c6f636b20756e6c65737320796f7520617265207468652063726561746f72546865726520617265206e6f20746f6b656e73206c65667420746f20726576657274206c6f636b20757020666f72207468697320616464726573734661696c656420746f2073656e6420746f6b656e7320746f207468652062656e6566696369617279596f752063616e6e6f74206c6f636b20757020746f6b656e7320666f7220746865207a65726f2061646472657373546865726520617265206e6f20746f6b656e73206c6f636b656420757020666f722074686973206164647265737354686520636f6e747261637420646f6573206e6f74206861766520656e6f756768206f6620616e20616c6c6f77616e636520746f20657363726f77a265627a7a723158202f893ca8ecf69ba4cc90eb2db867ffe43efc875c5c788f8e6b851b3f4d5c895b64736f6c634300050e0032",
  "source": "pragma solidity 0.5.14;\n\nimport \"@openzeppelin/contracts/token/ERC20/IERC20.sol\";\nimport \"@openzeppelin/contracts/utils/ReentrancyGuard.sol\";\n\ncontract TimeLockTokenEscrow is ReentrancyGuard {\n\n    event Lockup(\n        address indexed _creator,\n        address indexed _beneficiary,\n        uint256 indexed _amount,\n        uint256 _lockedUntil\n    );\n\n    event LockupReverted(\n        address indexed _creator,\n        address indexed _beneficiary,\n        uint256 indexed _amount\n    );\n\n    event Withdrawal(\n        address indexed _beneficiary,\n        address indexed _caller\n    );\n\n    struct TimeLock {\n        address creator;\n        uint256 amount;\n        uint256 lockedUntil;\n    }\n\n    IERC20 public token;\n\n    mapping(address => TimeLock) public beneficiaryToTimeLock;\n\n    constructor(IERC20 _token) public {\n        token = _token;\n    }\n\n    function lock(address _beneficiary, uint256 _amount, uint256 _lockedUntil) external nonReentrant {\n        require(_beneficiary != address(0), \"You cannot lock up tokens for the zero address\");\n        require(_amount > 0, \"Lock up amount of zero tokens is invalid\");\n        require(beneficiaryToTimeLock[_beneficiary].amount == 0, \"Tokens have already been locked up for the given address\");\n        require(token.allowance(msg.sender, address(this)) >= _amount, \"The contract does not have enough of an allowance to escrow\");\n\n        beneficiaryToTimeLock[_beneficiary] = TimeLock({\n            creator : msg.sender,\n            amount : _amount,\n            lockedUntil : _lockedUntil\n        });\n\n        bool transferSuccess = token.transferFrom(msg.sender, address(this), _amount);\n        require(transferSuccess, \"Failed to escrow tokens into the contract\");\n\n        emit Lockup(msg.sender, _beneficiary, _amount, _lockedUntil);\n    }\n\n    function revertLock(address _beneficiary) external nonReentrant {\n        TimeLock storage lockup = beneficiaryToTimeLock[_beneficiary];\n        require(lockup.creator == msg.sender, \"Cannot revert a lock unless you are the creator\");\n        require(lockup.amount > 0, \"There are no tokens left to revert lock up for this address\");\n\n        uint256 transferAmount = lockup.amount;\n        lockup.amount = 0;\n\n        bool transferSuccess = token.transfer(lockup.creator, transferAmount);\n        require(transferSuccess, \"Failed to send tokens back to lock creator\");\n\n        emit LockupReverted(msg.sender, _beneficiary, transferAmount);\n    }\n\n    function withdrawal(address _beneficiary) external nonReentrant {\n        TimeLock storage lockup = beneficiaryToTimeLock[_beneficiary];\n        require(lockup.amount > 0, \"There are no tokens locked up for this address\");\n        require(now >= lockup.lockedUntil, \"Tokens are still locked up\");\n\n        uint256 transferAmount = lockup.amount;\n        lockup.amount = 0;\n\n        bool transferSuccess = token.transfer(_beneficiary, transferAmount);\n        require(transferSuccess, \"Failed to send tokens to the beneficiary\");\n\n        emit Withdrawal(_beneficiary, msg.sender);\n    }\n}\n",
  "sourcePath": "/Users/jamesmorgan/Dropbox/workspace-blockrocket/alphabit/TimeLockTokenEscrow/smart-contracts/contracts/TimeLockTokenEscrow.sol",
  "compiler": {
    "name": "solc",
    "version": "0.5.14+commit.01f1aaa4.Emscripten.clang"
  },
  "schemaVersion": "3.0.19",
  "updatedAt": "2020-01-24T10:24:18.013Z",
  "networkType": "ethereum",
  "devdoc": {
    "methods": {}
  },
  "userdoc": {
    "methods": {}
  }
}