{
  "contractName": "TimeLockTokenEscrow",
  "abi": [
    {
      "inputs": [
        {
          "internalType": "contract IERC20",
          "name": "_token",
          "type": "address"
        }
      ],
      "payable": false,
      "stateMutability": "nonpayable",
      "type": "constructor"
    },
    {
      "anonymous": false,
      "inputs": [
        {
          "indexed": true,
          "internalType": "address",
          "name": "_beneficiary",
          "type": "address"
        },
        {
          "indexed": true,
          "internalType": "uint256",
          "name": "_amount",
          "type": "uint256"
        },
        {
          "indexed": false,
          "internalType": "uint256",
          "name": "_lockedUntil",
          "type": "uint256"
        }
      ],
      "name": "Lockup",
      "type": "event"
    },
    {
      "anonymous": false,
      "inputs": [
        {
          "indexed": true,
          "internalType": "address",
          "name": "_beneficiary",
          "type": "address"
        },
        {
          "indexed": true,
          "internalType": "address",
          "name": "_caller",
          "type": "address"
        }
      ],
      "name": "Withdrawal",
      "type": "event"
    },
    {
      "constant": true,
      "inputs": [
        {
          "internalType": "address",
          "name": "",
          "type": "address"
        }
      ],
      "name": "beneficiaryToTimeLock",
      "outputs": [
        {
          "internalType": "uint256",
          "name": "amount",
          "type": "uint256"
        },
        {
          "internalType": "uint256",
          "name": "lockedUntil",
          "type": "uint256"
        }
      ],
      "payable": false,
      "stateMutability": "view",
      "type": "function"
    },
    {
      "constant": true,
      "inputs": [],
      "name": "token",
      "outputs": [
        {
          "internalType": "contract IERC20",
          "name": "",
          "type": "address"
        }
      ],
      "payable": false,
      "stateMutability": "view",
      "type": "function"
    },
    {
      "constant": false,
      "inputs": [
        {
          "internalType": "address",
          "name": "_beneficiary",
          "type": "address"
        },
        {
          "internalType": "uint256",
          "name": "_amount",
          "type": "uint256"
        },
        {
          "internalType": "uint256",
          "name": "_lockedUntil",
          "type": "uint256"
        }
      ],
      "name": "lock",
      "outputs": [],
      "payable": false,
      "stateMutability": "nonpayable",
      "type": "function"
    },
    {
      "constant": false,
      "inputs": [
        {
          "internalType": "address",
          "name": "_beneficiary",
          "type": "address"
        }
      ],
      "name": "withdrawal",
      "outputs": [],
      "payable": false,
      "stateMutability": "nonpayable",
      "type": "function"
    }
  ],
  "bytecode": "0x608060405234801561001057600080fd5b506040516108523803806108528339818101604052602081101561003357600080fd5b50516001600081905580546001600160a01b039092166001600160a01b03199092169190911790556107e88061006a6000396000f3fe608060405234801561001057600080fd5b506004361061004c5760003560e01c80633d404ac2146100515780639613104914610090578063e2ab691d146100b8578063fc0c546a146100ea575b600080fd5b6100776004803603602081101561006757600080fd5b50356001600160a01b031661010e565b6040805192835260208301919091528051918290030190f35b6100b6600480360360208110156100a657600080fd5b50356001600160a01b0316610127565b005b6100b6600480360360608110156100ce57600080fd5b506001600160a01b038135169060208101359060400135610336565b6100f261065c565b604080516001600160a01b039092168252519081900360200190f35b6002602052600090815260409020805460019091015482565b600080546001018082556001600160a01b03831682526002602052604090912080546101845760405162461bcd60e51b815260040180806020018281038252602e81526020018061074b602e913960400191505060405180910390fd5b80600101544210156101dd576040805162461bcd60e51b815260206004820152601a60248201527f546f6b656e7320617265207374696c6c206c6f636b6564207570000000000000604482015290519081900360640190fd5b805460008083556001546040805163a9059cbb60e01b81526001600160a01b038881166004830152602482018690529151919092169163a9059cbb91604480830192602092919082900301818787803b15801561023957600080fd5b505af115801561024d573d6000803e3d6000fd5b505050506040513d602081101561026357600080fd5b50519050806102a35760405162461bcd60e51b81526004018080602001828103825260288152602001806106f56028913960400191505060405180910390fd5b60405133906001600160a01b038716907ffee4bd730c5342548069b84e6a6b38c19507a6fe4bbbc4ab6f648b1ed2ad5fc890600090a35050506000548114610332576040805162461bcd60e51b815260206004820152601f60248201527f5265656e7472616e637947756172643a207265656e7472616e742063616c6c00604482015290519081900360640190fd5b5050565b60008054600101908190556001600160a01b0384166103865760405162461bcd60e51b815260040180806020018281038252602e81526020018061071d602e913960400191505060405180910390fd5b600083116103c55760405162461bcd60e51b815260040180806020018281038252602881526020018061066c6028913960400191505060405180910390fd5b6001600160a01b0384166000908152600260205260409020541561041a5760405162461bcd60e51b81526004018080602001828103825260388152602001806106bd6038913960400191505060405180910390fd5b60015460408051636eb1769f60e11b8152336004820152306024820152905185926001600160a01b03169163dd62ed3e916044808301926020929190829003018186803b15801561046a57600080fd5b505afa15801561047e573d6000803e3d6000fd5b505050506040513d602081101561049457600080fd5b505110156104d35760405162461bcd60e51b815260040180806020018281038252603b815260200180610779603b913960400191505060405180910390fd5b60408051808201825284815260208082018581526001600160a01b03808916600090815260028452858120945185559151600194850155925484516323b872dd60e01b815233600482015230602482015260448101899052945191949316926323b872dd92606480830193919282900301818787803b15801561055557600080fd5b505af1158015610569573d6000803e3d6000fd5b505050506040513d602081101561057f57600080fd5b50519050806105bf5760405162461bcd60e51b81526004018080602001828103825260298152602001806106946029913960400191505060405180910390fd5b60408051848152905185916001600160a01b038816917fbc03179a8711ad181a058ca7cf3b3a2282ee895a7a0e8b59fa9ab0e68896b08e9181900360200190a3506000548114610656576040805162461bcd60e51b815260206004820152601f60248201527f5265656e7472616e637947756172643a207265656e7472616e742063616c6c00604482015290519081900360640190fd5b50505050565b6001546001600160a01b03168156fe4c6f636b20757020616d6f756e74206f66207a65726f20746f6b656e7320697320696e76616c69644661696c656420746f20657363726f7720746f6b656e7320696e746f2074686520636f6e7472616374546f6b656e73206861766520616c7265616479206265656e206c6f636b656420757020666f722074686520676976656e20616464726573734661696c656420746f2073656e6420746f6b656e7320746f207468652062656e6566696369617279596f752063616e6e6f74206c6f636b20757020746f6b656e7320666f7220746865207a65726f2061646472657373546865726520617265206e6f20746f6b656e73206c6f636b656420757020666f722074686973206164647265737354686520636f6e747261637420646f6573206e6f74206861766520656e6f756768206f6620616e20616c6c6f77616e636520746f20657363726f77a265627a7a72315820ffaf51a0efc93b848ff69d732b418af1e57de7abd11cf7898982ef603d2f4b7e64736f6c634300050e0032",
  "source": "pragma solidity 0.5.14;\n\nimport \"@openzeppelin/contracts/token/ERC20/IERC20.sol\";\nimport \"@openzeppelin/contracts/utils/ReentrancyGuard.sol\";\n\ncontract TimeLockTokenEscrow is ReentrancyGuard {\n\n    event Lockup(\n        address indexed _beneficiary,\n        uint256 indexed _amount,\n        uint256 _lockedUntil\n    );\n\n    event Withdrawal(\n        address indexed _beneficiary,\n        address indexed _caller\n    );\n\n    struct TimeLock {\n        uint256 amount;\n        uint256 lockedUntil;\n    }\n\n    IERC20 public token;\n\n    mapping(address => TimeLock) public beneficiaryToTimeLock;\n\n    constructor(IERC20 _token) public {\n        token = _token;\n    }\n\n    function lock(address _beneficiary, uint256 _amount, uint256 _lockedUntil) external nonReentrant {\n        require(_beneficiary != address(0), \"You cannot lock up tokens for the zero address\");\n        require(_amount > 0, \"Lock up amount of zero tokens is invalid\");\n        require(beneficiaryToTimeLock[_beneficiary].amount == 0, \"Tokens have already been locked up for the given address\");\n        require(token.allowance(msg.sender, address(this)) >= _amount, \"The contract does not have enough of an allowance to escrow\");\n\n        beneficiaryToTimeLock[_beneficiary] = TimeLock({\n            amount: _amount,\n            lockedUntil: _lockedUntil\n        });\n\n        bool transferSuccess = token.transferFrom(msg.sender, address(this), _amount);\n        require(transferSuccess, \"Failed to escrow tokens into the contract\");\n\n        emit Lockup(_beneficiary, _amount, _lockedUntil);\n    }\n\n    function withdrawal(address _beneficiary) external nonReentrant {\n        TimeLock storage lockup = beneficiaryToTimeLock[_beneficiary];\n        require(lockup.amount > 0, \"There are no tokens locked up for this address\");\n        require(now >= lockup.lockedUntil, \"Tokens are still locked up\");\n\n        uint256 transferAmount = lockup.amount;\n        lockup.amount = 0;\n\n        bool transferSuccess = token.transfer(_beneficiary, transferAmount);\n        require(transferSuccess, \"Failed to send tokens to the beneficiary\");\n\n        emit Withdrawal(_beneficiary, msg.sender);\n    }\n}\n",
  "sourcePath": "/Users/andy/workspace/TimeLockTokenEscrow/smart-contracts/contracts/TimeLockTokenEscrow.sol",
  "compiler": {
    "name": "solc",
    "version": "0.5.14+commit.01f1aaa4.Emscripten.clang"
  },
  "schemaVersion": "3.0.16",
  "updatedAt": "2020-01-22T14:40:13.825Z",
  "devdoc": {
    "methods": {}
  },
  "userdoc": {
    "methods": {}
  }
}