{
  "contractName": "TimeLockTokenEscrow",
  "abi": [
    {
      "inputs": [
        {
          "internalType": "contract IERC20",
          "name": "_token",
          "type": "address"
        }
      ],
      "payable": false,
      "stateMutability": "nonpayable",
      "type": "constructor"
    },
    {
      "anonymous": false,
      "inputs": [
        {
          "indexed": true,
          "internalType": "address",
          "name": "_beneficiary",
          "type": "address"
        },
        {
          "indexed": false,
          "internalType": "uint256",
          "name": "_amount",
          "type": "uint256"
        },
        {
          "indexed": false,
          "internalType": "uint256",
          "name": "_lockedUntil",
          "type": "uint256"
        }
      ],
      "name": "Lockup",
      "type": "event"
    },
    {
      "anonymous": false,
      "inputs": [
        {
          "indexed": true,
          "internalType": "address",
          "name": "_beneficiary",
          "type": "address"
        },
        {
          "indexed": true,
          "internalType": "address",
          "name": "_caller",
          "type": "address"
        }
      ],
      "name": "Withdrawal",
      "type": "event"
    },
    {
      "constant": true,
      "inputs": [
        {
          "internalType": "address",
          "name": "",
          "type": "address"
        }
      ],
      "name": "beneficiaryToTimeLock",
      "outputs": [
        {
          "internalType": "uint256",
          "name": "amount",
          "type": "uint256"
        },
        {
          "internalType": "uint256",
          "name": "lockedUntil",
          "type": "uint256"
        },
        {
          "internalType": "bool",
          "name": "claimed",
          "type": "bool"
        }
      ],
      "payable": false,
      "stateMutability": "view",
      "type": "function"
    },
    {
      "constant": true,
      "inputs": [],
      "name": "token",
      "outputs": [
        {
          "internalType": "contract IERC20",
          "name": "",
          "type": "address"
        }
      ],
      "payable": false,
      "stateMutability": "view",
      "type": "function"
    },
    {
      "constant": false,
      "inputs": [
        {
          "internalType": "address",
          "name": "_beneficiary",
          "type": "address"
        },
        {
          "internalType": "uint256",
          "name": "_amount",
          "type": "uint256"
        },
        {
          "internalType": "uint256",
          "name": "_lockedUntil",
          "type": "uint256"
        }
      ],
      "name": "lock",
      "outputs": [],
      "payable": false,
      "stateMutability": "nonpayable",
      "type": "function"
    },
    {
      "constant": false,
      "inputs": [
        {
          "internalType": "address",
          "name": "_beneficiary",
          "type": "address"
        }
      ],
      "name": "withdrawal",
      "outputs": [],
      "payable": false,
      "stateMutability": "nonpayable",
      "type": "function"
    },
    {
      "constant": true,
      "inputs": [
        {
          "internalType": "address",
          "name": "owner",
          "type": "address"
        }
      ],
      "name": "approvalAmount",
      "outputs": [
        {
          "internalType": "uint256",
          "name": "",
          "type": "uint256"
        }
      ],
      "payable": false,
      "stateMutability": "view",
      "type": "function"
    }
  ],
  "bytecode": "0x608060405234801561001057600080fd5b506040516109bc3803806109bc8339818101604052602081101561003357600080fd5b50516001600081905580546001600160a01b039092166001600160a01b03199092169190911790556109528061006a6000396000f3fe608060405234801561001057600080fd5b50600436106100575760003560e01c80631d67b3d81461005c5780633d404ac21461009457806396131049146100da578063e2ab691d14610102578063fc0c546a14610134575b600080fd5b6100826004803603602081101561007257600080fd5b50356001600160a01b0316610158565b60408051918252519081900360200190f35b6100ba600480360360208110156100aa57600080fd5b50356001600160a01b03166101e1565b604080519384526020840192909252151582820152519081900360600190f35b610100600480360360208110156100f057600080fd5b50356001600160a01b0316610204565b005b6101006004803603606081101561011857600080fd5b506001600160a01b03813516906020810135906040013561047c565b61013c6107c6565b604080516001600160a01b039092168252519081900360200190f35b60015460408051636eb1769f60e11b81526001600160a01b0384811660048301523060248301529151600093929092169163dd62ed3e91604480820192602092909190829003018186803b1580156101af57600080fd5b505afa1580156101c3573d6000803e3d6000fd5b505050506040513d60208110156101d957600080fd5b505192915050565b600260208190526000918252604090912080546001820154919092015460ff1683565b600080546001018082556001600160a01b03831682526002602052604090912080546102615760405162461bcd60e51b815260040180806020018281038252602e8152602001806108b5602e913960400191505060405180910390fd5b600281015460ff16156102bb576040805162461bcd60e51b815260206004820181905260248201527f546f6b656e73206861766520616c7265616479206265656e20636c61696d6564604482015290519081900360640190fd5b8060010154421015610314576040805162461bcd60e51b815260206004820152601a60248201527f546f6b656e7320617265207374696c6c206c6f636b6564207570000000000000604482015290519081900360640190fd5b60028101805460ff191660019081179091555481546040805163a9059cbb60e01b81526001600160a01b03878116600483015260248201939093529051600093929092169163a9059cbb9160448082019260209290919082900301818787803b15801561038057600080fd5b505af1158015610394573d6000803e3d6000fd5b505050506040513d60208110156103aa57600080fd5b50519050806103ea5760405162461bcd60e51b815260040180806020018281038252602881526020018061085f6028913960400191505060405180910390fd5b60405133906001600160a01b038616907ffee4bd730c5342548069b84e6a6b38c19507a6fe4bbbc4ab6f648b1ed2ad5fc890600090a350506000548114610478576040805162461bcd60e51b815260206004820152601f60248201527f5265656e7472616e637947756172643a207265656e7472616e742063616c6c00604482015290519081900360640190fd5b5050565b60008054600101908190556001600160a01b0384166104cc5760405162461bcd60e51b815260040180806020018281038252602e815260200180610887602e913960400191505060405180910390fd5b6000831161050b5760405162461bcd60e51b81526004018080602001828103825260288152602001806107d66028913960400191505060405180910390fd5b6001600160a01b038416600090815260026020526040902054156105605760405162461bcd60e51b81526004018080602001828103825260388152602001806108276038913960400191505060405180910390fd5b60015460408051636eb1769f60e11b8152336004820152306024820152905185926001600160a01b03169163dd62ed3e916044808301926020929190829003018186803b1580156105b057600080fd5b505afa1580156105c4573d6000803e3d6000fd5b505050506040513d60208110156105da57600080fd5b505110156106195760405162461bcd60e51b815260040180806020018281038252603b8152602001806108e3603b913960400191505060405180910390fd5b60408051606081018252848152602080820185815260008385018181526001600160a01b038a811683526002808652878420965187559351600180880191909155915195909301805460ff191695151595909517909455925484516323b872dd60e01b815233600482015230602482015260448101899052945193949116926323b872dd9260648084019391929182900301818787803b1580156106bc57600080fd5b505af11580156106d0573d6000803e3d6000fd5b505050506040513d60208110156106e657600080fd5b50519050806107265760405162461bcd60e51b81526004018080602001828103825260298152602001806107fe6029913960400191505060405180910390fd5b604080518581526020810185905281516001600160a01b038816927fbc03179a8711ad181a058ca7cf3b3a2282ee895a7a0e8b59fa9ab0e68896b08e928290030190a25060005481146107c0576040805162461bcd60e51b815260206004820152601f60248201527f5265656e7472616e637947756172643a207265656e7472616e742063616c6c00604482015290519081900360640190fd5b50505050565b6001546001600160a01b03168156fe4c6f636b20757020616d6f756e74206f66207a65726f20746f6b656e7320697320696e76616c69644661696c656420746f20657363726f7720746f6b656e7320696e746f2074686520636f6e7472616374546f6b656e73206861766520616c7265616479206265656e206c6f636b656420757020666f722074686520676976656e20616464726573734661696c656420746f2073656e6420746f6b656e7320746f207468652062656e6566696369617279596f752063616e6e6f74206c6f636b20757020746f6b656e7320666f7220746865207a65726f2061646472657373546865726520617265206e6f20746f6b656e73206c6f636b656420757020666f722074686973206164647265737354686520636f6e747261637420646f6573206e6f74206861766520656e6f756768206f6620616e20616c6c6f77616e636520746f20657363726f77a265627a7a72315820b9e2af68f7b30ea6cfb2c561a1fb4add77f5153d5823c0ab9f3a189236fb8cf364736f6c634300050e0032",
  "source": "pragma solidity 0.5.14;\n\nimport \"@openzeppelin/contracts/math/SafeMath.sol\";\nimport \"@openzeppelin/contracts/token/ERC20/IERC20.sol\";\nimport \"@openzeppelin/contracts/utils/ReentrancyGuard.sol\";\n\ncontract TimeLockTokenEscrow is ReentrancyGuard {\n    using SafeMath for uint256;\n\n    event Lockup(\n        address indexed _beneficiary,\n        uint256 _amount,\n        uint256 _lockedUntil\n    );\n\n    event Withdrawal(\n        address indexed _beneficiary,\n        address indexed _caller\n    );\n\n    struct TimeLock {\n        uint256 amount;\n        uint256 lockedUntil;\n        bool claimed;\n    }\n\n    IERC20 public token;\n\n    mapping(address => TimeLock) public beneficiaryToTimeLock;\n\n    constructor(IERC20 _token) public {\n        token = _token;\n    }\n\n    function lock(address _beneficiary, uint256 _amount, uint256 _lockedUntil) external nonReentrant {\n        require(_beneficiary != address(0), \"You cannot lock up tokens for the zero address\");\n        require(_amount > 0, \"Lock up amount of zero tokens is invalid\");\n        require(beneficiaryToTimeLock[_beneficiary].amount == 0, \"Tokens have already been locked up for the given address\");\n        require(token.allowance(msg.sender, address(this)) >= _amount, \"The contract does not have enough of an allowance to escrow\");\n\n        beneficiaryToTimeLock[_beneficiary] = TimeLock({\n            amount: _amount,\n            lockedUntil: _lockedUntil,\n            claimed: false\n        });\n\n        bool transferSuccess = token.transferFrom(msg.sender, address(this), _amount);\n        require(transferSuccess, \"Failed to escrow tokens into the contract\");\n\n        emit Lockup(_beneficiary, _amount, _lockedUntil);\n    }\n\n    function withdrawal(address _beneficiary) external nonReentrant {\n        TimeLock storage lockup = beneficiaryToTimeLock[_beneficiary];\n        require(lockup.amount > 0, \"There are no tokens locked up for this address\");\n        require(!lockup.claimed, \"Tokens have already been claimed\");\n        require(now >= lockup.lockedUntil, \"Tokens are still locked up\");\n\n        lockup.claimed = true;\n\n        bool transferSuccess = token.transfer(_beneficiary, lockup.amount);\n        require(transferSuccess, \"Failed to send tokens to the beneficiary\");\n\n        emit Withdrawal(_beneficiary, msg.sender);\n    }\n\n    function approvalAmount(address owner) external view returns (uint256) {\n        return token.allowance(owner, address(this));\n    }\n}",
  "sourcePath": "/Users/Natalie/Projects/TimeLockTokenEscrow/contracts/TimeLockTokenEscrow.sol",
  "compiler": {
    "name": "solc",
    "version": "0.5.14+commit.01f1aaa4.Emscripten.clang"
  },
  "schemaVersion": "3.0.19",
  "updatedAt": "2020-01-20T14:08:01.435Z",
  "networkType": "ethereum",
  "devdoc": {
    "methods": {}
  },
  "userdoc": {
    "methods": {}
  }
}